{
  "_format": "hh-sol-artifact-1",
  "contractName": "Insurance",
  "sourceName": "contracts/Insurance.sol",
  "abi": [
    {
      "inputs": [],
      "stateMutability": "nonpayable",
      "type": "constructor"
    },
    {
      "inputs": [],
      "name": "acceptClaim",
      "outputs": [],
      "stateMutability": "payable",
      "type": "function"
    },
    {
      "inputs": [
        {
          "internalType": "address",
          "name": "clientAddress",
          "type": "address"
        },
        {
          "internalType": "uint256",
          "name": "claimAmount",
          "type": "uint256"
        }
      ],
      "name": "fileClaim",
      "outputs": [],
      "stateMutability": "nonpayable",
      "type": "function"
    },
    {
      "inputs": [
        {
          "internalType": "address",
          "name": "addr",
          "type": "address"
        }
      ],
      "name": "getInsuranceNextInstallment",
      "outputs": [
        {
          "internalType": "uint256",
          "name": "",
          "type": "uint256"
        }
      ],
      "stateMutability": "view",
      "type": "function"
    },
    {
      "inputs": [
        {
          "internalType": "address",
          "name": "addr",
          "type": "address"
        }
      ],
      "name": "getInsuranceStartDate",
      "outputs": [
        {
          "internalType": "uint256",
          "name": "",
          "type": "uint256"
        }
      ],
      "stateMutability": "view",
      "type": "function"
    },
    {
      "inputs": [
        {
          "internalType": "address",
          "name": "addr",
          "type": "address"
        }
      ],
      "name": "getInsuranceStatus",
      "outputs": [
        {
          "internalType": "bool",
          "name": "",
          "type": "bool"
        }
      ],
      "stateMutability": "view",
      "type": "function"
    },
    {
      "inputs": [
        {
          "internalType": "address",
          "name": "addr",
          "type": "address"
        }
      ],
      "name": "getInsuredAmount",
      "outputs": [
        {
          "internalType": "uint256",
          "name": "",
          "type": "uint256"
        }
      ],
      "stateMutability": "view",
      "type": "function"
    },
    {
      "inputs": [],
      "name": "hospitalDeposit",
      "outputs": [
        {
          "internalType": "uint256",
          "name": "",
          "type": "uint256"
        }
      ],
      "stateMutability": "view",
      "type": "function"
    },
    {
      "inputs": [],
      "name": "monthlyPremium",
      "outputs": [
        {
          "internalType": "uint256",
          "name": "",
          "type": "uint256"
        }
      ],
      "stateMutability": "view",
      "type": "function"
    },
    {
      "inputs": [
        {
          "internalType": "address",
          "name": "addr",
          "type": "address"
        }
      ],
      "name": "payPremium",
      "outputs": [],
      "stateMutability": "payable",
      "type": "function"
    },
    {
      "inputs": [],
      "name": "setNewClient",
      "outputs": [],
      "stateMutability": "payable",
      "type": "function"
    },
    {
      "inputs": [],
      "name": "setNewHospital",
      "outputs": [],
      "stateMutability": "payable",
      "type": "function"
    }
  ],
  "bytecode": "0x608060405234801561001057600080fd5b50336000806101000a81548173ffffffffffffffffffffffffffffffffffffffff021916908373ffffffffffffffffffffffffffffffffffffffff160217905550611ab2806100606000396000f3fe60806040526004361061009c5760003560e01c806361b44b631161006457806361b44b6314610137578063ae103b5814610141578063c0157b031461017e578063cd1f64a2146101bb578063d91e0079146101f8578063e540cae0146102235761009c565b806319254e2e146100a15780631f7572ec146100de578063257cd78c146100e8578063582f56e214610111578063618bd7bb1461012d575b600080fd5b3480156100ad57600080fd5b506100c860048036038101906100c391906113b9565b61024e565b6040516100d59190611401565b60405180910390f35b6100e6610338565b005b3480156100f457600080fd5b5061010f600480360381019061010a9190611452565b61074a565b005b61012b600480360381019061012691906113b9565b610ba1565b005b610135610d78565b005b61013f610e1c565b005b34801561014d57600080fd5b50610168600480360381019061016391906113b9565b6110a8565b60405161017591906114a1565b60405180910390f35b34801561018a57600080fd5b506101a560048036038101906101a091906113b9565b611185565b6040516101b291906114a1565b60405180910390f35b3480156101c757600080fd5b506101e260048036038101906101dd91906113b9565b611262565b6040516101ef91906114a1565b60405180910390f35b34801561020457600080fd5b5061020d61133f565b60405161021a91906114a1565b60405180910390f35b34801561022f57600080fd5b5061023861134b565b60405161024591906114a1565b60405180910390f35b600081600160008273ffffffffffffffffffffffffffffffffffffffff1673ffffffffffffffffffffffffffffffffffffffff16815260200190815260200160002060020160009054906101000a900460ff166102e0576040517f08c379a00000000000000000000000000000000000000000000000000000000081526004016102d79061153f565b60405180910390fd5b600160008473ffffffffffffffffffffffffffffffffffffffff1673ffffffffffffffffffffffffffffffffffffffff16815260200190815260200160002060020160009054906101000a900460ff16915050919050565b600160003373ffffffffffffffffffffffffffffffffffffffff1673ffffffffffffffffffffffffffffffffffffffff16815260200190815260200160002060020160009054906101000a900460ff166103c7576040517f08c379a00000000000000000000000000000000000000000000000000000000081526004016103be906115d1565b60405180910390fd5b600160003373ffffffffffffffffffffffffffffffffffffffff1673ffffffffffffffffffffffffffffffffffffffff16815260200190815260200160002060020160019054906101000a900460ff16610456576040517f08c379a000000000000000000000000000000000000000000000000000000000815260040161044d9061163d565b60405180910390fd5b600160003373ffffffffffffffffffffffffffffffffffffffff1673ffffffffffffffffffffffffffffffffffffffff168152602001908152602001600020600501544710156104db576040517f08c379a00000000000000000000000000000000000000000000000000000000081526004016104d2906116cf565b60405180910390fd5b6000600160003373ffffffffffffffffffffffffffffffffffffffff1673ffffffffffffffffffffffffffffffffffffffff16815260200190815260200160002060050154600160003373ffffffffffffffffffffffffffffffffffffffff1673ffffffffffffffffffffffffffffffffffffffff1681526020019081526020016000206001015461056d919061171e565b905080600160003373ffffffffffffffffffffffffffffffffffffffff1673ffffffffffffffffffffffffffffffffffffffff16815260200190815260200160002060010181905550600160003373ffffffffffffffffffffffffffffffffffffffff1673ffffffffffffffffffffffffffffffffffffffff1681526020019081526020016000206005015490506000600160003373ffffffffffffffffffffffffffffffffffffffff1673ffffffffffffffffffffffffffffffffffffffff16815260200190815260200160002060050181905550600160003373ffffffffffffffffffffffffffffffffffffffff1673ffffffffffffffffffffffffffffffffffffffff16815260200190815260200160002060060160009054906101000a900473ffffffffffffffffffffffffffffffffffffffff1673ffffffffffffffffffffffffffffffffffffffff166108fc829081150290604051600060405180830381858888f193505050501580156106eb573d6000803e3d6000fd5b506000600160003373ffffffffffffffffffffffffffffffffffffffff1673ffffffffffffffffffffffffffffffffffffffff16815260200190815260200160002060020160016101000a81548160ff02191690831515021790555050565b600260003373ffffffffffffffffffffffffffffffffffffffff1673ffffffffffffffffffffffffffffffffffffffff16815260200190815260200160002060009054906101000a900460ff166107d6576040517f08c379a00000000000000000000000000000000000000000000000000000000081526004016107cd9061179e565b60405180910390fd5b81600160008273ffffffffffffffffffffffffffffffffffffffff1673ffffffffffffffffffffffffffffffffffffffff16815260200190815260200160002060020160009054906101000a900460ff16610866576040517f08c379a000000000000000000000000000000000000000000000000000000000815260040161085d9061153f565b60405180910390fd5b600160008473ffffffffffffffffffffffffffffffffffffffff1673ffffffffffffffffffffffffffffffffffffffff1681526020019081526020016000206003015442111561090c576000600160008573ffffffffffffffffffffffffffffffffffffffff1673ffffffffffffffffffffffffffffffffffffffff16815260200190815260200160002060020160006101000a81548160ff0219169083151502179055505b670de0b6b3a76400008261092091906117be565b9150600160008473ffffffffffffffffffffffffffffffffffffffff1673ffffffffffffffffffffffffffffffffffffffff16815260200190815260200160002060020160019054906101000a900460ff16156109b2576040517f08c379a00000000000000000000000000000000000000000000000000000000081526004016109a990611898565b60405180910390fd5b814710156109f5576040517f08c379a00000000000000000000000000000000000000000000000000000000081526004016109ec906116cf565b60405180910390fd5b81600160008573ffffffffffffffffffffffffffffffffffffffff1673ffffffffffffffffffffffffffffffffffffffff168152602001908152602001600020600101541015610a7a576040517f08c379a0000000000000000000000000000000000000000000000000000000008152600401610a719061192a565b60405180910390fd5b81600160008573ffffffffffffffffffffffffffffffffffffffff1673ffffffffffffffffffffffffffffffffffffffff1681526020019081526020016000206005018190555060018060008573ffffffffffffffffffffffffffffffffffffffff1673ffffffffffffffffffffffffffffffffffffffff16815260200190815260200160002060020160016101000a81548160ff02191690831515021790555033600160008573ffffffffffffffffffffffffffffffffffffffff1673ffffffffffffffffffffffffffffffffffffffff16815260200190815260200160002060060160006101000a81548173ffffffffffffffffffffffffffffffffffffffff021916908373ffffffffffffffffffffffffffffffffffffffff160217905550505050565b662386f26fc100003414610bea576040517f08c379a0000000000000000000000000000000000000000000000000000000008152600401610be190611996565b60405180910390fd5b600034600160008473ffffffffffffffffffffffffffffffffffffffff1673ffffffffffffffffffffffffffffffffffffffff16815260200190815260200160002060000154610c3a91906119b6565b905080600160008473ffffffffffffffffffffffffffffffffffffffff1673ffffffffffffffffffffffffffffffffffffffff1681526020019081526020016000206000018190555060018060008473ffffffffffffffffffffffffffffffffffffffff1673ffffffffffffffffffffffffffffffffffffffff16815260200190815260200160002060020160006101000a81548160ff02191690831515021790555062278d00600160008473ffffffffffffffffffffffffffffffffffffffff1673ffffffffffffffffffffffffffffffffffffffff16815260200190815260200160002060030154610d2e91906119b6565b600160008473ffffffffffffffffffffffffffffffffffffffff1673ffffffffffffffffffffffffffffffffffffffff168152602001908152602001600020600301819055505050565b670de0b6b3a76400003414610dc2576040517f08c379a0000000000000000000000000000000000000000000000000000000008152600401610db990611a5c565b60405180910390fd5b6001600260003373ffffffffffffffffffffffffffffffffffffffff1673ffffffffffffffffffffffffffffffffffffffff16815260200190815260200160002060006101000a81548160ff021916908315150217905550565b662386f26fc100003414610e65576040517f08c379a0000000000000000000000000000000000000000000000000000000008152600401610e5c90611996565b60405180910390fd5b60018060003373ffffffffffffffffffffffffffffffffffffffff1673ffffffffffffffffffffffffffffffffffffffff16815260200190815260200160002060020160016101000a81548160ff02191690831515021790555034600160003373ffffffffffffffffffffffffffffffffffffffff1673ffffffffffffffffffffffffffffffffffffffff16815260200190815260200160002060000181905550678ac7230489e80000600160003373ffffffffffffffffffffffffffffffffffffffff1673ffffffffffffffffffffffffffffffffffffffff168152602001908152602001600020600101819055506000600160003373ffffffffffffffffffffffffffffffffffffffff1673ffffffffffffffffffffffffffffffffffffffff16815260200190815260200160002060020160016101000a81548160ff02191690831515021790555060018060003373ffffffffffffffffffffffffffffffffffffffff1673ffffffffffffffffffffffffffffffffffffffff16815260200190815260200160002060020160006101000a81548160ff02191690831515021790555062278d004261101991906119b6565b600160003373ffffffffffffffffffffffffffffffffffffffff1673ffffffffffffffffffffffffffffffffffffffff1681526020019081526020016000206003018190555042600160003373ffffffffffffffffffffffffffffffffffffffff1673ffffffffffffffffffffffffffffffffffffffff16815260200190815260200160002060040181905550565b600081600160008273ffffffffffffffffffffffffffffffffffffffff1673ffffffffffffffffffffffffffffffffffffffff16815260200190815260200160002060020160009054906101000a900460ff1661113a576040517f08c379a00000000000000000000000000000000000000000000000000000000081526004016111319061153f565b60405180910390fd5b600160008473ffffffffffffffffffffffffffffffffffffffff1673ffffffffffffffffffffffffffffffffffffffff16815260200190815260200160002060030154915050919050565b600081600160008273ffffffffffffffffffffffffffffffffffffffff1673ffffffffffffffffffffffffffffffffffffffff16815260200190815260200160002060020160009054906101000a900460ff16611217576040517f08c379a000000000000000000000000000000000000000000000000000000000815260040161120e9061153f565b60405180910390fd5b600160008473ffffffffffffffffffffffffffffffffffffffff1673ffffffffffffffffffffffffffffffffffffffff16815260200190815260200160002060040154915050919050565b600081600160008273ffffffffffffffffffffffffffffffffffffffff1673ffffffffffffffffffffffffffffffffffffffff16815260200190815260200160002060020160009054906101000a900460ff166112f4576040517f08c379a00000000000000000000000000000000000000000000000000000000081526004016112eb9061153f565b60405180910390fd5b600160008473ffffffffffffffffffffffffffffffffffffffff1673ffffffffffffffffffffffffffffffffffffffff16815260200190815260200160002060010154915050919050565b670de0b6b3a764000081565b662386f26fc1000081565b600080fd5b600073ffffffffffffffffffffffffffffffffffffffff82169050919050565b60006113868261135b565b9050919050565b6113968161137b565b81146113a157600080fd5b50565b6000813590506113b38161138d565b92915050565b6000602082840312156113cf576113ce611356565b5b60006113dd848285016113a4565b91505092915050565b60008115159050919050565b6113fb816113e6565b82525050565b600060208201905061141660008301846113f2565b92915050565b6000819050919050565b61142f8161141c565b811461143a57600080fd5b50565b60008135905061144c81611426565b92915050565b6000806040838503121561146957611468611356565b5b6000611477858286016113a4565b92505060206114888582860161143d565b9150509250929050565b61149b8161141c565b82525050565b60006020820190506114b66000830184611492565b92915050565b600082825260208201905092915050565b7f496e737572616e6365206f6e20746869732061646472657373206973206e6f7460008201527f2061637469766500000000000000000000000000000000000000000000000000602082015250565b60006115296027836114bc565b9150611534826114cd565b604082019050919050565b600060208201905081810360008301526115588161151c565b9050919050565b7f496e737572616e6365206973206e6f7420616374697665206f6e20746869732060008201527f6164647265737300000000000000000000000000000000000000000000000000602082015250565b60006115bb6027836114bc565b91506115c68261155f565b604082019050919050565b600060208201905081810360008301526115ea816115ae565b9050919050565b7f436c69656e7420686173206e6f20636c61696d20616374697665000000000000600082015250565b6000611627601a836114bc565b9150611632826115f1565b602082019050919050565b600060208201905081810360008301526116568161161a565b9050919050565b7f4e6f7420456e6f7567682062616c616e636520696e20436f6e74726163742e2060008201527f506c656173652054727920616761696e20212100000000000000000000000000602082015250565b60006116b96033836114bc565b91506116c48261165d565b604082019050919050565b600060208201905081810360008301526116e8816116ac565b9050919050565b7f4e487b7100000000000000000000000000000000000000000000000000000000600052601160045260246000fd5b60006117298261141c565b91506117348361141c565b925082820390508181111561174c5761174b6116ef565b5b92915050565b7f43616c6c6572206973206e6f74206120686f73706974616c0000000000000000600082015250565b60006117886018836114bc565b915061179382611752565b602082019050919050565b600060208201905081810360008301526117b78161177b565b9050919050565b60006117c98261141c565b91506117d48361141c565b92508282026117e28161141c565b915082820484148315176117f9576117f86116ef565b5b5092915050565b7f436c69656e742048617320616e6f746865722061637469766520636c61696d2c60008201527f20506c65617365207265736f6c7665207468652070726576696f7320636c616960208201527f6d20746f2066696c65206e657720636c61696d20210000000000000000000000604082015250565b60006118826055836114bc565b915061188d82611800565b606082019050919050565b600060208201905081810360008301526118b181611875565b9050919050565b7f436c61696d20697320626967676572207468616e2072656d61696e696e67206360008201527f6f76657261676520616d6f756e74000000000000000000000000000000000000602082015250565b6000611914602e836114bc565b915061191f826118b8565b604082019050919050565b6000602082019050818103600083015261194381611907565b9050919050565b7f5072656d69756d2073686f756c6420626520696e20302e303120457468657200600082015250565b6000611980601f836114bc565b915061198b8261194a565b602082019050919050565b600060208201905081810360008301526119af81611973565b9050919050565b60006119c18261141c565b91506119cc8361141c565b92508282019050808211156119e4576119e36116ef565b5b92915050565b7f4465706f7369742073686f756c6420626520657175616c20746f20312045746860008201527f6572000000000000000000000000000000000000000000000000000000000000602082015250565b6000611a466022836114bc565b9150611a51826119ea565b604082019050919050565b60006020820190508181036000830152611a7581611a39565b905091905056fea26469706673582212201e4c35c9814afc4b41c35508f7a4740c3b1c98d390d2ac6f1a4d3c680df4251f64736f6c63430008110033",
  "linkReferences": {},
  "deployedLinkReferences": {}
}